{
  "_format": "hh-sol-artifact-1",
  "contractName": "Dao",
  "sourceName": "contracts/Dao.sol",
  "abi": [
    {
      "inputs": [],
      "stateMutability": "nonpayable",
      "type": "constructor"
    },
    {
      "inputs": [
        {
          "internalType": "address",
          "name": "owner",
          "type": "address"
        }
      ],
      "name": "OwnableInvalidOwner",
      "type": "error"
    },
    {
      "inputs": [
        {
          "internalType": "address",
          "name": "account",
          "type": "address"
        }
      ],
      "name": "OwnableUnauthorizedAccount",
      "type": "error"
    },
    {
      "anonymous": false,
      "inputs": [
        {
          "indexed": false,
          "internalType": "address",
          "name": "_author",
          "type": "address"
        }
      ],
      "name": "AuthorBanned",
      "type": "event"
    },
    {
      "anonymous": false,
      "inputs": [
        {
          "indexed": true,
          "internalType": "address",
          "name": "_author",
          "type": "address"
        },
        {
          "indexed": false,
          "internalType": "uint256",
          "name": "date",
          "type": "uint256"
        }
      ],
      "name": "AuthorCreated",
      "type": "event"
    },
    {
      "anonymous": false,
      "inputs": [
        {
          "indexed": true,
          "internalType": "address",
          "name": "previousOwner",
          "type": "address"
        },
        {
          "indexed": true,
          "internalType": "address",
          "name": "newOwner",
          "type": "address"
        }
      ],
      "name": "OwnershipTransferred",
      "type": "event"
    },
    {
      "anonymous": false,
      "inputs": [
        {
          "indexed": false,
          "internalType": "address",
          "name": "_registeredReaderBanned",
          "type": "address"
        }
      ],
      "name": "RegisteredReaderBanned",
      "type": "event"
    },
    {
      "anonymous": false,
      "inputs": [
        {
          "indexed": false,
          "internalType": "address",
          "name": "_verifier",
          "type": "address"
        }
      ],
      "name": "VerifierBanned",
      "type": "event"
    },
    {
      "anonymous": false,
      "inputs": [
        {
          "indexed": true,
          "internalType": "address",
          "name": "_verifier",
          "type": "address"
        },
        {
          "indexed": false,
          "internalType": "uint256",
          "name": "date",
          "type": "uint256"
        }
      ],
      "name": "VerifierCreated",
      "type": "event"
    },
    {
      "inputs": [],
      "name": "VrequiredReportsForVerifierPromotion",
      "outputs": [
        {
          "internalType": "uint256",
          "name": "",
          "type": "uint256"
        }
      ],
      "stateMutability": "view",
      "type": "function"
    },
    {
      "inputs": [],
      "name": "VrequiredVerificationsForAuthorPromotion",
      "outputs": [
        {
          "internalType": "uint256",
          "name": "",
          "type": "uint256"
        }
      ],
      "stateMutability": "view",
      "type": "function"
    },
    {
      "inputs": [],
      "name": "VtimeIntervalForAuthorPromotion",
      "outputs": [
        {
          "internalType": "uint256",
          "name": "",
          "type": "uint256"
        }
      ],
      "stateMutability": "view",
      "type": "function"
    },
    {
      "inputs": [],
      "name": "VtimeIntervalForVerifierPromotion",
      "outputs": [
        {
          "internalType": "uint256",
          "name": "",
          "type": "uint256"
        }
      ],
      "stateMutability": "view",
      "type": "function"
    },
    {
      "inputs": [
        {
          "internalType": "address",
          "name": "",
          "type": "address"
        }
      ],
      "name": "authors",
      "outputs": [
        {
          "internalType": "bool",
          "name": "isAuthor",
          "type": "bool"
        },
        {
          "internalType": "uint256",
          "name": "firstParticipationDate",
          "type": "uint256"
        }
      ],
      "stateMutability": "view",
      "type": "function"
    },
    {
      "inputs": [
        {
          "internalType": "address",
          "name": "_author",
          "type": "address"
        }
      ],
      "name": "banAuthor",
      "outputs": [],
      "stateMutability": "nonpayable",
      "type": "function"
    },
    {
      "inputs": [
        {
          "internalType": "address",
          "name": "_verifier",
          "type": "address"
        }
      ],
      "name": "banVerifier",
      "outputs": [],
      "stateMutability": "nonpayable",
      "type": "function"
    },
    {
      "inputs": [
        {
          "internalType": "address",
          "name": "_author",
          "type": "address"
        }
      ],
      "name": "createAuthor",
      "outputs": [],
      "stateMutability": "nonpayable",
      "type": "function"
    },
    {
      "inputs": [
        {
          "internalType": "address",
          "name": "_verifier",
          "type": "address"
        }
      ],
      "name": "createVerifier",
      "outputs": [],
      "stateMutability": "nonpayable",
      "type": "function"
    },
    {
      "inputs": [],
      "name": "numberOfAuthors",
      "outputs": [
        {
          "internalType": "uint256",
          "name": "",
          "type": "uint256"
        }
      ],
      "stateMutability": "view",
      "type": "function"
    },
    {
      "inputs": [],
      "name": "numberOfVerifiers",
      "outputs": [
        {
          "internalType": "uint256",
          "name": "",
          "type": "uint256"
        }
      ],
      "stateMutability": "view",
      "type": "function"
    },
    {
      "inputs": [],
      "name": "owner",
      "outputs": [
        {
          "internalType": "address",
          "name": "",
          "type": "address"
        }
      ],
      "stateMutability": "view",
      "type": "function"
    },
    {
      "inputs": [
        {
          "internalType": "address",
          "name": "",
          "type": "address"
        }
      ],
      "name": "readers",
      "outputs": [
        {
          "internalType": "bool",
          "name": "isReader",
          "type": "bool"
        },
        {
          "internalType": "uint256",
          "name": "firstReportDate",
          "type": "uint256"
        },
        {
          "internalType": "uint256",
          "name": "totalReportNumber",
          "type": "uint256"
        }
      ],
      "stateMutability": "view",
      "type": "function"
    },
    {
      "inputs": [],
      "name": "renounceOwnership",
      "outputs": [],
      "stateMutability": "nonpayable",
      "type": "function"
    },
    {
      "inputs": [
        {
          "internalType": "uint256",
          "name": "_value",
          "type": "uint256"
        }
      ],
      "name": "setVrequiredReportsForVerifierPromotion",
      "outputs": [],
      "stateMutability": "nonpayable",
      "type": "function"
    },
    {
      "inputs": [
        {
          "internalType": "uint256",
          "name": "_value",
          "type": "uint256"
        }
      ],
      "name": "setVrequiredVerificationsForAuthorPromotion",
      "outputs": [],
      "stateMutability": "nonpayable",
      "type": "function"
    },
    {
      "inputs": [
        {
          "internalType": "uint256",
          "name": "_value",
          "type": "uint256"
        }
      ],
      "name": "setVtimeIntervalForAuthorPromotion",
      "outputs": [],
      "stateMutability": "nonpayable",
      "type": "function"
    },
    {
      "inputs": [
        {
          "internalType": "uint256",
          "name": "_value",
          "type": "uint256"
        }
      ],
      "name": "setVtimeIntervalForVerifierPromotion",
      "outputs": [],
      "stateMutability": "nonpayable",
      "type": "function"
    },
    {
      "inputs": [
        {
          "internalType": "address",
          "name": "newOwner",
          "type": "address"
        }
      ],
      "name": "transferOwnership",
      "outputs": [],
      "stateMutability": "nonpayable",
      "type": "function"
    },
    {
      "inputs": [
        {
          "internalType": "address",
          "name": "",
          "type": "address"
        }
      ],
      "name": "verifiers",
      "outputs": [
        {
          "internalType": "bool",
          "name": "isVerifier",
          "type": "bool"
        },
        {
          "internalType": "uint256",
          "name": "firstParticipationDate",
          "type": "uint256"
        },
        {
          "internalType": "uint256",
          "name": "totalVerificationDoneNumber",
          "type": "uint256"
        }
      ],
      "stateMutability": "view",
      "type": "function"
    }
  ],
  "bytecode": "0x6080604052600a600155601460025562ed4e006003556301da9c006004553480156200002a57600080fd5b5033600073ffffffffffffffffffffffffffffffffffffffff168173ffffffffffffffffffffffffffffffffffffffff1603620000a15760006040517f1e4fbdf7000000000000000000000000000000000000000000000000000000008152600401620000989190620001c2565b60405180910390fd5b620000b281620000b960201b60201c565b50620001df565b60008060009054906101000a900473ffffffffffffffffffffffffffffffffffffffff169050816000806101000a81548173ffffffffffffffffffffffffffffffffffffffff021916908373ffffffffffffffffffffffffffffffffffffffff1602179055508173ffffffffffffffffffffffffffffffffffffffff168173ffffffffffffffffffffffffffffffffffffffff167f8be0079c531659141344cd1fd0a4f28419497f9722a3daafe3b4186f6b6457e060405160405180910390a35050565b600073ffffffffffffffffffffffffffffffffffffffff82169050919050565b6000620001aa826200017d565b9050919050565b620001bc816200019d565b82525050565b6000602082019050620001d96000830184620001b1565b92915050565b61126e80620001ef6000396000f3fe608060405234801561001057600080fd5b506004361061012c5760003560e01c8063715018a6116100ad578063b37984c211610071578063b37984c2146102fb578063b5f2af8d14610319578063bf9c500114610335578063c11e228714610366578063f2fde38b146103825761012c565b8063715018a61461027b578063719eed12146102855780638190ecc7146102a15780638da5cb5b146102bf5780639e2358f6146102dd5761012c565b80634960ae42116100f45780634960ae42146101c157806349c4bc34146101df5780634af37811146101fb57806351e59ffb146102175780636c824487146102495761012c565b80630285b1331461013157806309a50ea81461014d5780631e2bd5321461016b57806324b58d3e1461018757806332adca1e146101a3575b600080fd5b61014b60048036038101906101469190610dbe565b61039e565b005b6101556103b0565b6040516101629190610dfa565b60405180910390f35b61018560048036038101906101809190610e73565b6103b6565b005b6101a1600480360381019061019c9190610dbe565b6105dc565b005b6101ab6105ee565b6040516101b89190610dfa565b60405180910390f35b6101c96105f4565b6040516101d69190610dfa565b60405180910390f35b6101f960048036038101906101f49190610e73565b6105fa565b005b61021560048036038101906102109190610e73565b61073e565b005b610231600480360381019061022c9190610e73565b610954565b60405161024093929190610ebb565b60405180910390f35b610263600480360381019061025e9190610e73565b61098b565b60405161027293929190610ebb565b60405180910390f35b6102836109c2565b005b61029f600480360381019061029a9190610dbe565b6109d6565b005b6102a96109e8565b6040516102b69190610dfa565b60405180910390f35b6102c76109ee565b6040516102d49190610f01565b60405180910390f35b6102e5610a17565b6040516102f29190610dfa565b60405180910390f35b610303610a1d565b6040516103109190610dfa565b60405180910390f35b610333600480360381019061032e9190610e73565b610a23565b005b61034f600480360381019061034a9190610e73565b610b67565b60405161035d929190610f1c565b60405180910390f35b610380600480360381019061037b9190610dbe565b610b98565b005b61039c60048036038101906103979190610e73565b610baa565b005b6103a6610c30565b8060028190555050565b60035481565b6103be610c30565b600860008273ffffffffffffffffffffffffffffffffffffffff1673ffffffffffffffffffffffffffffffffffffffff16815260200190815260200160002060000160009054906101000a900460ff161561044e576040517f08c379a000000000000000000000000000000000000000000000000000000000815260040161044590610fa2565b60405180910390fd5b600760008273ffffffffffffffffffffffffffffffffffffffff1673ffffffffffffffffffffffffffffffffffffffff16815260200190815260200160002060000160009054906101000a900460ff16156104de576040517f08c379a00000000000000000000000000000000000000000000000000000000081526004016104d590610fa2565b60405180910390fd5b60405180606001604052806001151581526020014281526020016000815250600860008373ffffffffffffffffffffffffffffffffffffffff1673ffffffffffffffffffffffffffffffffffffffff16815260200190815260200160002060008201518160000160006101000a81548160ff02191690831515021790555060208201518160010155604082015181600201559050506006600081548092919061058690610ff1565b91905055508073ffffffffffffffffffffffffffffffffffffffff167febb498bf85c482c2ba59a2a0c46ce71fd728c0a5a0cf1e8b5105d7c6261fdb58426040516105d19190610dfa565b60405180910390a250565b6105e4610c30565b8060048190555050565b60045481565b60065481565b610602610c30565b600860008273ffffffffffffffffffffffffffffffffffffffff1673ffffffffffffffffffffffffffffffffffffffff16815260200190815260200160002060000160009054906101000a900460ff16610691576040517f08c379a000000000000000000000000000000000000000000000000000000000815260040161068890611085565b60405180910390fd5b6000600860008373ffffffffffffffffffffffffffffffffffffffff1673ffffffffffffffffffffffffffffffffffffffff16815260200190815260200160002060000160006101000a81548160ff021916908315150217905550600660008154809291906106ff906110a5565b91905055507f0a591cdea60168afbee9ccb53dafcddf8eb16a992f73d3992d5aa93a02c6f331816040516107339190610f01565b60405180910390a150565b610746610c30565b600760008273ffffffffffffffffffffffffffffffffffffffff1673ffffffffffffffffffffffffffffffffffffffff16815260200190815260200160002060000160009054906101000a900460ff16156107d6576040517f08c379a00000000000000000000000000000000000000000000000000000000081526004016107cd9061111a565b60405180910390fd5b600860008273ffffffffffffffffffffffffffffffffffffffff1673ffffffffffffffffffffffffffffffffffffffff16815260200190815260200160002060000160009054906101000a900460ff1615610866576040517f08c379a000000000000000000000000000000000000000000000000000000000815260040161085d906111ac565b60405180910390fd5b60405180604001604052806001151581526020016000815250600760008373ffffffffffffffffffffffffffffffffffffffff1673ffffffffffffffffffffffffffffffffffffffff16815260200190815260200160002060008201518160000160006101000a81548160ff02191690831515021790555060208201518160010155905050600560008154809291906108fe90610ff1565b91905055508073ffffffffffffffffffffffffffffffffffffffff167f499f5f48b44e6264421233f216b7342f5127b16d0d806c323b9c38b6e55fae2e426040516109499190610dfa565b60405180910390a250565b60096020528060005260406000206000915090508060000160009054906101000a900460ff16908060010154908060020154905083565b60086020528060005260406000206000915090508060000160009054906101000a900460ff16908060010154908060020154905083565b6109ca610c30565b6109d46000610cb7565b565b6109de610c30565b8060038190555050565b60055481565b60008060009054906101000a900473ffffffffffffffffffffffffffffffffffffffff16905090565b60025481565b60015481565b610a2b610c30565b600760008273ffffffffffffffffffffffffffffffffffffffff1673ffffffffffffffffffffffffffffffffffffffff16815260200190815260200160002060000160009054906101000a900460ff16610aba576040517f08c379a0000000000000000000000000000000000000000000000000000000008152600401610ab190611218565b60405180910390fd5b6000600760008373ffffffffffffffffffffffffffffffffffffffff1673ffffffffffffffffffffffffffffffffffffffff16815260200190815260200160002060000160006101000a81548160ff02191690831515021790555060056000815480929190610b28906110a5565b91905055507fc7c9fad637695cfcecd8470e3df0ca77113fdc9ba942ce5120dcdced6d436aea81604051610b5c9190610f01565b60405180910390a150565b60076020528060005260406000206000915090508060000160009054906101000a900460ff16908060010154905082565b610ba0610c30565b8060018190555050565b610bb2610c30565b600073ffffffffffffffffffffffffffffffffffffffff168173ffffffffffffffffffffffffffffffffffffffff1603610c245760006040517f1e4fbdf7000000000000000000000000000000000000000000000000000000008152600401610c1b9190610f01565b60405180910390fd5b610c2d81610cb7565b50565b610c38610d7b565b73ffffffffffffffffffffffffffffffffffffffff16610c566109ee565b73ffffffffffffffffffffffffffffffffffffffff1614610cb557610c79610d7b565b6040517f118cdaa7000000000000000000000000000000000000000000000000000000008152600401610cac9190610f01565b60405180910390fd5b565b60008060009054906101000a900473ffffffffffffffffffffffffffffffffffffffff169050816000806101000a81548173ffffffffffffffffffffffffffffffffffffffff021916908373ffffffffffffffffffffffffffffffffffffffff1602179055508173ffffffffffffffffffffffffffffffffffffffff168173ffffffffffffffffffffffffffffffffffffffff167f8be0079c531659141344cd1fd0a4f28419497f9722a3daafe3b4186f6b6457e060405160405180910390a35050565b600033905090565b600080fd5b6000819050919050565b610d9b81610d88565b8114610da657600080fd5b50565b600081359050610db881610d92565b92915050565b600060208284031215610dd457610dd3610d83565b5b6000610de284828501610da9565b91505092915050565b610df481610d88565b82525050565b6000602082019050610e0f6000830184610deb565b92915050565b600073ffffffffffffffffffffffffffffffffffffffff82169050919050565b6000610e4082610e15565b9050919050565b610e5081610e35565b8114610e5b57600080fd5b50565b600081359050610e6d81610e47565b92915050565b600060208284031215610e8957610e88610d83565b5b6000610e9784828501610e5e565b91505092915050565b60008115159050919050565b610eb581610ea0565b82525050565b6000606082019050610ed06000830186610eac565b610edd6020830185610deb565b610eea6040830184610deb565b949350505050565b610efb81610e35565b82525050565b6000602082019050610f166000830184610ef2565b92915050565b6000604082019050610f316000830185610eac565b610f3e6020830184610deb565b9392505050565b600082825260208201905092915050565b7f566572696669657220616c726561647920657869737473000000000000000000600082015250565b6000610f8c601783610f45565b9150610f9782610f56565b602082019050919050565b60006020820190508181036000830152610fbb81610f7f565b9050919050565b7f4e487b7100000000000000000000000000000000000000000000000000000000600052601160045260246000fd5b6000610ffc82610d88565b91507fffffffffffffffffffffffffffffffffffffffffffffffffffffffffffffffff820361102e5761102d610fc2565b5b600182019050919050565b7f5665726966696572206e6f7420666f756e640000000000000000000000000000600082015250565b600061106f601283610f45565b915061107a82611039565b602082019050919050565b6000602082019050818103600083015261109e81611062565b9050919050565b60006110b082610d88565b9150600082036110c3576110c2610fc2565b5b600182039050919050565b7f417574686f7220616c7265616479206578697374730000000000000000000000600082015250565b6000611104601583610f45565b915061110f826110ce565b602082019050919050565b60006020820190508181036000830152611133816110f7565b9050919050565b7f5665726966696572732063616e6e6f7420626520617574686f7273206174207460008201527f68652073616d652074696d650000000000000000000000000000000000000000602082015250565b6000611196602c83610f45565b91506111a18261113a565b604082019050919050565b600060208201905081810360008301526111c581611189565b9050919050565b7f417574686f72206e6f7420666f756e6400000000000000000000000000000000600082015250565b6000611202601083610f45565b915061120d826111cc565b602082019050919050565b60006020820190508181036000830152611231816111f5565b905091905056fea2646970667358221220f73dd2bd55fb3ecdbcfea2bce428bd1c6f59a75ef0a951cd90c79ee5e0eeccfd64736f6c63430008160033",
  "linkReferences": {},
  "deployedLinkReferences": {}
}